{
  "_format": "hh-sol-artifact-1",
  "contractName": "JobMarketplace",
  "sourceName": "contracts/JobMarketplace.sol",
  "abi": [
    {
      "inputs": [],
      "stateMutability": "nonpayable",
      "type": "constructor"
    },
    {
      "inputs": [],
      "name": "EnforcedPause",
      "type": "error"
    },
    {
      "inputs": [],
      "name": "ExpectedPause",
      "type": "error"
    },
    {
      "inputs": [
        {
          "internalType": "address",
          "name": "owner",
          "type": "address"
        }
      ],
      "name": "OwnableInvalidOwner",
      "type": "error"
    },
    {
      "inputs": [
        {
          "internalType": "address",
          "name": "account",
          "type": "address"
        }
      ],
      "name": "OwnableUnauthorizedAccount",
      "type": "error"
    },
    {
      "inputs": [],
      "name": "ReentrancyGuardReentrantCall",
      "type": "error"
    },
    {
      "anonymous": false,
      "inputs": [
        {
          "indexed": true,
          "internalType": "uint256",
          "name": "jobId",
          "type": "uint256"
        },
        {
          "indexed": true,
          "internalType": "address",
          "name": "freelancer",
          "type": "address"
        }
      ],
      "name": "ApplicationSubmitted",
      "type": "event"
    },
    {
      "anonymous": false,
      "inputs": [
        {
          "indexed": true,
          "internalType": "uint256",
          "name": "jobId",
          "type": "uint256"
        },
        {
          "indexed": true,
          "internalType": "address",
          "name": "freelancer",
          "type": "address"
        }
      ],
      "name": "FreelancerSelected",
      "type": "event"
    },
    {
      "anonymous": false,
      "inputs": [
        {
          "indexed": true,
          "internalType": "uint256",
          "name": "jobId",
          "type": "uint256"
        },
        {
          "indexed": true,
          "internalType": "address",
          "name": "freelancer",
          "type": "address"
        },
        {
          "indexed": false,
          "internalType": "uint256",
          "name": "payment",
          "type": "uint256"
        }
      ],
      "name": "JobCompleted",
      "type": "event"
    },
    {
      "anonymous": false,
      "inputs": [
        {
          "indexed": true,
          "internalType": "uint256",
          "name": "jobId",
          "type": "uint256"
        },
        {
          "indexed": true,
          "internalType": "address",
          "name": "employer",
          "type": "address"
        },
        {
          "indexed": false,
          "internalType": "string",
          "name": "title",
          "type": "string"
        },
        {
          "indexed": false,
          "internalType": "uint256",
          "name": "budget",
          "type": "uint256"
        }
      ],
      "name": "JobCreated",
      "type": "event"
    },
    {
      "anonymous": false,
      "inputs": [
        {
          "indexed": true,
          "internalType": "address",
          "name": "previousOwner",
          "type": "address"
        },
        {
          "indexed": true,
          "internalType": "address",
          "name": "newOwner",
          "type": "address"
        }
      ],
      "name": "OwnershipTransferred",
      "type": "event"
    },
    {
      "anonymous": false,
      "inputs": [
        {
          "indexed": false,
          "internalType": "address",
          "name": "account",
          "type": "address"
        }
      ],
      "name": "Paused",
      "type": "event"
    },
    {
      "anonymous": false,
      "inputs": [
        {
          "indexed": true,
          "internalType": "address",
          "name": "user",
          "type": "address"
        },
        {
          "indexed": false,
          "internalType": "string",
          "name": "name",
          "type": "string"
        }
      ],
      "name": "ProfileUpdated",
      "type": "event"
    },
    {
      "anonymous": false,
      "inputs": [
        {
          "indexed": true,
          "internalType": "address",
          "name": "rated",
          "type": "address"
        },
        {
          "indexed": false,
          "internalType": "uint256",
          "name": "rating",
          "type": "uint256"
        }
      ],
      "name": "RatingSubmitted",
      "type": "event"
    },
    {
      "anonymous": false,
      "inputs": [
        {
          "indexed": false,
          "internalType": "address",
          "name": "account",
          "type": "address"
        }
      ],
      "name": "Unpaused",
      "type": "event"
    },
    {
      "inputs": [
        {
          "internalType": "uint256",
          "name": "_jobId",
          "type": "uint256"
        },
        {
          "internalType": "string",
          "name": "_proposal",
          "type": "string"
        },
        {
          "internalType": "uint256",
          "name": "_proposedPrice",
          "type": "uint256"
        }
      ],
      "name": "applyForJob",
      "outputs": [],
      "stateMutability": "nonpayable",
      "type": "function"
    },
    {
      "inputs": [
        {
          "internalType": "uint256",
          "name": "_jobId",
          "type": "uint256"
        }
      ],
      "name": "completeJob",
      "outputs": [],
      "stateMutability": "payable",
      "type": "function"
    },
    {
      "inputs": [
        {
          "internalType": "string",
          "name": "_name",
          "type": "string"
        },
        {
          "internalType": "string",
          "name": "_skills",
          "type": "string"
        }
      ],
      "name": "createProfile",
      "outputs": [],
      "stateMutability": "nonpayable",
      "type": "function"
    },
    {
      "inputs": [
        {
          "internalType": "uint256",
          "name": "_jobId",
          "type": "uint256"
        }
      ],
      "name": "getJob",
      "outputs": [
        {
          "components": [
            {
              "internalType": "uint256",
              "name": "id",
              "type": "uint256"
            },
            {
              "internalType": "address",
              "name": "employer",
              "type": "address"
            },
            {
              "internalType": "string",
              "name": "title",
              "type": "string"
            },
            {
              "internalType": "string",
              "name": "description",
              "type": "string"
            },
            {
              "internalType": "uint256",
              "name": "budget",
              "type": "uint256"
            },
            {
              "internalType": "bool",
              "name": "isActive",
              "type": "bool"
            },
            {
              "internalType": "address",
              "name": "selectedFreelancer",
              "type": "address"
            },
            {
              "internalType": "enum IJobMarketplace.JobStatus",
              "name": "status",
              "type": "uint8"
            }
          ],
          "internalType": "struct IJobMarketplace.Job",
          "name": "",
          "type": "tuple"
        }
      ],
      "stateMutability": "view",
      "type": "function"
    },
    {
      "inputs": [
        {
          "internalType": "uint256",
          "name": "_jobId",
          "type": "uint256"
        }
      ],
      "name": "getJobApplications",
      "outputs": [
        {
          "components": [
            {
              "internalType": "uint256",
              "name": "jobId",
              "type": "uint256"
            },
            {
              "internalType": "address",
              "name": "freelancer",
              "type": "address"
            },
            {
              "internalType": "string",
              "name": "proposal",
              "type": "string"
            },
            {
              "internalType": "uint256",
              "name": "proposedPrice",
              "type": "uint256"
            },
            {
              "internalType": "bool",
              "name": "isAccepted",
              "type": "bool"
            }
          ],
          "internalType": "struct IJobMarketplace.Application[]",
          "name": "",
          "type": "tuple[]"
        }
      ],
      "stateMutability": "view",
      "type": "function"
    },
    {
      "inputs": [
        {
          "internalType": "address",
          "name": "_user",
          "type": "address"
        }
      ],
      "name": "getProfile",
      "outputs": [
        {
          "components": [
            {
              "internalType": "string",
              "name": "name",
              "type": "string"
            },
            {
              "internalType": "string",
              "name": "skills",
              "type": "string"
            },
            {
              "internalType": "uint256",
              "name": "rating",
              "type": "uint256"
            },
            {
              "internalType": "uint256",
              "name": "totalRatings",
              "type": "uint256"
            },
            {
              "internalType": "bool",
              "name": "isRegistered",
              "type": "bool"
            }
          ],
          "internalType": "struct IJobMarketplace.Profile",
          "name": "",
          "type": "tuple"
        }
      ],
      "stateMutability": "view",
      "type": "function"
    },
    {
      "inputs": [
        {
          "internalType": "uint256",
          "name": "",
          "type": "uint256"
        },
        {
          "internalType": "address",
          "name": "",
          "type": "address"
        }
      ],
      "name": "hasApplied",
      "outputs": [
        {
          "internalType": "bool",
          "name": "",
          "type": "bool"
        }
      ],
      "stateMutability": "view",
      "type": "function"
    },
    {
      "inputs": [
        {
          "internalType": "uint256",
          "name": "",
          "type": "uint256"
        },
        {
          "internalType": "uint256",
          "name": "",
          "type": "uint256"
        }
      ],
      "name": "jobApplications",
      "outputs": [
        {
          "internalType": "uint256",
          "name": "jobId",
          "type": "uint256"
        },
        {
          "internalType": "address",
          "name": "freelancer",
          "type": "address"
        },
        {
          "internalType": "string",
          "name": "proposal",
          "type": "string"
        },
        {
          "internalType": "uint256",
          "name": "proposedPrice",
          "type": "uint256"
        },
        {
          "internalType": "bool",
          "name": "isAccepted",
          "type": "bool"
        }
      ],
      "stateMutability": "view",
      "type": "function"
    },
    {
      "inputs": [],
      "name": "jobCounter",
      "outputs": [
        {
          "internalType": "uint256",
          "name": "",
          "type": "uint256"
        }
      ],
      "stateMutability": "view",
      "type": "function"
    },
    {
      "inputs": [
        {
          "internalType": "uint256",
          "name": "",
          "type": "uint256"
        }
      ],
      "name": "jobs",
      "outputs": [
        {
          "internalType": "uint256",
          "name": "id",
          "type": "uint256"
        },
        {
          "internalType": "address",
          "name": "employer",
          "type": "address"
        },
        {
          "internalType": "string",
          "name": "title",
          "type": "string"
        },
        {
          "internalType": "string",
          "name": "description",
          "type": "string"
        },
        {
          "internalType": "uint256",
          "name": "budget",
          "type": "uint256"
        },
        {
          "internalType": "bool",
          "name": "isActive",
          "type": "bool"
        },
        {
          "internalType": "address",
          "name": "selectedFreelancer",
          "type": "address"
        },
        {
          "internalType": "enum IJobMarketplace.JobStatus",
          "name": "status",
          "type": "uint8"
        }
      ],
      "stateMutability": "view",
      "type": "function"
    },
    {
      "inputs": [],
      "name": "owner",
      "outputs": [
        {
          "internalType": "address",
          "name": "",
          "type": "address"
        }
      ],
      "stateMutability": "view",
      "type": "function"
    },
    {
      "inputs": [],
      "name": "pause",
      "outputs": [],
      "stateMutability": "nonpayable",
      "type": "function"
    },
    {
      "inputs": [],
      "name": "paused",
      "outputs": [
        {
          "internalType": "bool",
          "name": "",
          "type": "bool"
        }
      ],
      "stateMutability": "view",
      "type": "function"
    },
    {
      "inputs": [
        {
          "internalType": "string",
          "name": "_title",
          "type": "string"
        },
        {
          "internalType": "string",
          "name": "_description",
          "type": "string"
        },
        {
          "internalType": "uint256",
          "name": "_budget",
          "type": "uint256"
        }
      ],
      "name": "postJob",
      "outputs": [
        {
          "internalType": "uint256",
          "name": "",
          "type": "uint256"
        }
      ],
      "stateMutability": "nonpayable",
      "type": "function"
    },
    {
      "inputs": [
        {
          "internalType": "address",
          "name": "",
          "type": "address"
        }
      ],
      "name": "profiles",
      "outputs": [
        {
          "internalType": "string",
          "name": "name",
          "type": "string"
        },
        {
          "internalType": "string",
          "name": "skills",
          "type": "string"
        },
        {
          "internalType": "uint256",
          "name": "rating",
          "type": "uint256"
        },
        {
          "internalType": "uint256",
          "name": "totalRatings",
          "type": "uint256"
        },
        {
          "internalType": "bool",
          "name": "isRegistered",
          "type": "bool"
        }
      ],
      "stateMutability": "view",
      "type": "function"
    },
    {
      "inputs": [],
      "name": "renounceOwnership",
      "outputs": [],
      "stateMutability": "nonpayable",
      "type": "function"
    },
    {
      "inputs": [
        {
          "internalType": "uint256",
          "name": "_jobId",
          "type": "uint256"
        },
        {
          "internalType": "address",
          "name": "_freelancer",
          "type": "address"
        }
      ],
      "name": "selectFreelancer",
      "outputs": [],
      "stateMutability": "nonpayable",
      "type": "function"
    },
    {
      "inputs": [
        {
          "internalType": "address",
          "name": "_rated",
          "type": "address"
        },
        {
          "internalType": "uint256",
          "name": "_rating",
          "type": "uint256"
        }
      ],
      "name": "submitRating",
      "outputs": [],
      "stateMutability": "nonpayable",
      "type": "function"
    },
    {
      "inputs": [
        {
          "internalType": "address",
          "name": "newOwner",
          "type": "address"
        }
      ],
      "name": "transferOwnership",
      "outputs": [],
      "stateMutability": "nonpayable",
      "type": "function"
    },
    {
      "inputs": [],
      "name": "unpause",
      "outputs": [],
      "stateMutability": "nonpayable",
      "type": "function"
    },
    {
      "inputs": [],
      "name": "withdrawStuckFunds",
      "outputs": [],
      "stateMutability": "nonpayable",
      "type": "function"
    }
  ],
  "bytecode": "0x60806040523480156200001157600080fd5b503360016000819055506000600160006101000a81548160ff021916908315150217905550600073ffffffffffffffffffffffffffffffffffffffff168173ffffffffffffffffffffffffffffffffffffffff1603620000ab5760006040517f1e4fbdf7000000000000000000000000000000000000000000000000000000008152600401620000a29190620001cb565b60405180910390fd5b620000bc81620000c360201b60201c565b50620001e8565b600060018054906101000a900473ffffffffffffffffffffffffffffffffffffffff169050816001806101000a81548173ffffffffffffffffffffffffffffffffffffffff021916908373ffffffffffffffffffffffffffffffffffffffff1602179055508173ffffffffffffffffffffffffffffffffffffffff168173ffffffffffffffffffffffffffffffffffffffff167f8be0079c531659141344cd1fd0a4f28419497f9722a3daafe3b4186f6b6457e060405160405180910390a35050565b600073ffffffffffffffffffffffffffffffffffffffff82169050919050565b6000620001b38262000186565b9050919050565b620001c581620001a6565b82525050565b6000602082019050620001e26000830184620001ba565b92915050565b613a6580620001f86000396000f3fe60806040526004361061012a5760003560e01c80638da5cb5b116100ab578063bf22c4571161006f578063bf22c457146103dc578063c5b60a4814610419578063d1a6283814610430578063ead39a1114610459578063f2fde38b1461049a578063f8d550e6146104c35761012a565b80638da5cb5b146102ee578063a1c0d32f14610319578063a39bf54414610335578063ba1feb8a14610372578063bbe156271461039b5761012a565b80635c3b9c4a116100f25780635c3b9c4a1461021b5780635c975abb14610258578063715018a614610283578063747143b91461029a5780638456cb59146102d75761012a565b80630f53a4701461012f578063180aedf31461016c578063380deabc146101b05780633f4ba83a146101d957806350355d76146101f0575b600080fd5b34801561013b57600080fd5b50610156600480360381019061015191906125a3565b6104ec565b6040516101639190612711565b60405180910390f35b34801561017857600080fd5b50610193600480360381019061018e919061275f565b610698565b6040516101a798979695949392919061287a565b60405180910390f35b3480156101bc57600080fd5b506101d760048036038101906101d29190612906565b61084a565b005b3480156101e557600080fd5b506101ee610b41565b005b3480156101fc57600080fd5b50610205610b53565b6040516102129190612946565b60405180910390f35b34801561022757600080fd5b50610242600480360381019061023d9190612a96565b610b59565b60405161024f9190612946565b60405180910390f35b34801561026457600080fd5b5061026d610e1a565b60405161027a9190612b21565b60405180910390f35b34801561028f57600080fd5b50610298610e31565b005b3480156102a657600080fd5b506102c160048036038101906102bc919061275f565b610e45565b6040516102ce9190612c83565b60405180910390f35b3480156102e357600080fd5b506102ec610fce565b005b3480156102fa57600080fd5b50610303610fe0565b6040516103109190612ca5565b60405180910390f35b610333600480360381019061032e919061275f565b611008565b005b34801561034157600080fd5b5061035c60048036038101906103579190612906565b6112f1565b6040516103699190612b21565b60405180910390f35b34801561037e57600080fd5b5061039960048036038101906103949190612cc0565b611320565b005b3480156103a757600080fd5b506103c260048036038101906103bd91906125a3565b6114d8565b6040516103d3959493929190612d38565b60405180910390f35b3480156103e857600080fd5b5061040360048036038101906103fe919061275f565b61162b565b6040516104109190612e5f565b60405180910390f35b34801561042557600080fd5b5061042e611893565b005b34801561043c57600080fd5b5061045760048036038101906104529190612e81565b6118eb565b005b34801561046557600080fd5b50610480600480360381019061047b9190612ef0565b611d34565b604051610491959493929190612f30565b60405180910390f35b3480156104a657600080fd5b506104c160048036038101906104bc91906125a3565b611e3c565b005b3480156104cf57600080fd5b506104ea60048036038101906104e59190612f8a565b611ec2565b005b6104f461247b565b600360008373ffffffffffffffffffffffffffffffffffffffff1673ffffffffffffffffffffffffffffffffffffffff1681526020019081526020016000206040518060a001604052908160008201805461054e90612ff9565b80601f016020809104026020016040519081016040528092919081815260200182805461057a90612ff9565b80156105c75780601f1061059c576101008083540402835291602001916105c7565b820191906000526020600020905b8154815290600101906020018083116105aa57829003601f168201915b505050505081526020016001820180546105e090612ff9565b80601f016020809104026020016040519081016040528092919081815260200182805461060c90612ff9565b80156106595780601f1061062e57610100808354040283529160200191610659565b820191906000526020600020905b81548152906001019060200180831161063c57829003601f168201915b5050505050815260200160028201548152602001600382015481526020016004820160009054906101000a900460ff1615151515815250509050919050565b60026020528060005260406000206000915090508060000154908060010160009054906101000a900473ffffffffffffffffffffffffffffffffffffffff16908060020180546106e790612ff9565b80601f016020809104026020016040519081016040528092919081815260200182805461071390612ff9565b80156107605780601f1061073557610100808354040283529160200191610760565b820191906000526020600020905b81548152906001019060200180831161074357829003601f168201915b50505050509080600301805461077590612ff9565b80601f01602080910402602001604051908101604052809291908181526020018280546107a190612ff9565b80156107ee5780601f106107c3576101008083540402835291602001916107ee565b820191906000526020600020905b8154815290600101906020018083116107d157829003601f168201915b5050505050908060040154908060050160009054906101000a900460ff16908060050160019054906101000a900473ffffffffffffffffffffffffffffffffffffffff16908060050160159054906101000a900460ff16905088565b610852612193565b816006548110610897576040517f08c379a000000000000000000000000000000000000000000000000000000000815260040161088e90613076565b60405180910390fd5b823373ffffffffffffffffffffffffffffffffffffffff166002600083815260200190815260200160002060010160009054906101000a900473ffffffffffffffffffffffffffffffffffffffff1673ffffffffffffffffffffffffffffffffffffffff161461093c576040517f08c379a0000000000000000000000000000000000000000000000000000000008152600401610933906130e2565b60405180910390fd5b600060038111156109505761094f612803565b5b6002600086815260200190815260200160002060050160159054906101000a900460ff16600381111561098657610985612803565b5b146109c6576040517f08c379a00000000000000000000000000000000000000000000000000000000081526004016109bd9061314e565b60405180910390fd5b6005600085815260200190815260200160002060008473ffffffffffffffffffffffffffffffffffffffff1673ffffffffffffffffffffffffffffffffffffffff16815260200190815260200160002060009054906101000a900460ff16610a63576040517f08c379a0000000000000000000000000000000000000000000000000000000008152600401610a5a906131ba565b60405180910390fd5b826002600086815260200190815260200160002060050160016101000a81548173ffffffffffffffffffffffffffffffffffffffff021916908373ffffffffffffffffffffffffffffffffffffffff16021790555060016002600086815260200190815260200160002060050160156101000a81548160ff02191690836003811115610af257610af1612803565b5b02179055508273ffffffffffffffffffffffffffffffffffffffff16847f038b6dd13ab376cd96a6924f79dde494c7fbb5ea9f8c950b668d934645995cfd60405160405180910390a350505050565b610b496121d4565b610b5161225b565b565b60065481565b6000610b63612193565b600360003373ffffffffffffffffffffffffffffffffffffffff1673ffffffffffffffffffffffffffffffffffffffff16815260200190815260200160002060040160009054906101000a900460ff16610bf2576040517f08c379a0000000000000000000000000000000000000000000000000000000008152600401610be990613226565b60405180910390fd5b600060066000815480929190610c0790613275565b9190505590506040518061010001604052808281526020013373ffffffffffffffffffffffffffffffffffffffff168152602001868152602001858152602001848152602001600115158152602001600073ffffffffffffffffffffffffffffffffffffffff16815260200160006003811115610c8757610c86612803565b5b815250600260008381526020019081526020016000206000820151816000015560208201518160010160006101000a81548173ffffffffffffffffffffffffffffffffffffffff021916908373ffffffffffffffffffffffffffffffffffffffff1602179055506040820151816002019081610d039190613469565b506060820151816003019081610d199190613469565b506080820151816004015560a08201518160050160006101000a81548160ff02191690831515021790555060c08201518160050160016101000a81548173ffffffffffffffffffffffffffffffffffffffff021916908373ffffffffffffffffffffffffffffffffffffffff16021790555060e08201518160050160156101000a81548160ff02191690836003811115610db657610db5612803565b5b02179055509050503373ffffffffffffffffffffffffffffffffffffffff16817fe2664ff85acbefce4793e83fe4a10e88680b3172a3e401c7946d7cfb8f19ebdb8786604051610e0792919061353b565b60405180910390a3809150509392505050565b6000600160009054906101000a900460ff16905090565b610e396121d4565b610e4360006122be565b565b606060046000838152602001908152602001600020805480602002602001604051908101604052809291908181526020016000905b82821015610fc357838290600052602060002090600502016040518060a0016040529081600082015481526020016001820160009054906101000a900473ffffffffffffffffffffffffffffffffffffffff1673ffffffffffffffffffffffffffffffffffffffff1673ffffffffffffffffffffffffffffffffffffffff168152602001600282018054610f0d90612ff9565b80601f0160208091040260200160405190810160405280929190818152602001828054610f3990612ff9565b8015610f865780601f10610f5b57610100808354040283529160200191610f86565b820191906000526020600020905b815481529060010190602001808311610f6957829003601f168201915b50505050508152602001600382015481526020016004820160009054906101000a900460ff16151515158152505081526020019060010190610e7a565b505050509050919050565b610fd66121d4565b610fde612381565b565b600060018054906101000a900473ffffffffffffffffffffffffffffffffffffffff16905090565b611010612193565b806006548110611055576040517f08c379a000000000000000000000000000000000000000000000000000000000815260040161104c90613076565b60405180910390fd5b813373ffffffffffffffffffffffffffffffffffffffff166002600083815260200190815260200160002060010160009054906101000a900473ffffffffffffffffffffffffffffffffffffffff1673ffffffffffffffffffffffffffffffffffffffff16146110fa576040517f08c379a00000000000000000000000000000000000000000000000000000000081526004016110f1906130e2565b60405180910390fd5b6111026123e3565b60006002600085815260200190815260200160002090506001600381111561112d5761112c612803565b5b8160050160159054906101000a900460ff16600381111561115157611150612803565b5b14611191576040517f08c379a0000000000000000000000000000000000000000000000000000000008152600401611188906135b7565b60405180910390fd5b80600401543410156111d8576040517f08c379a00000000000000000000000000000000000000000000000000000000081526004016111cf90613623565b60405180910390fd5b60028160050160156101000a81548160ff02191690836003811115611200576111ff612803565b5b02179055508060050160019054906101000a900473ffffffffffffffffffffffffffffffffffffffff1673ffffffffffffffffffffffffffffffffffffffff166108fc349081150290604051600060405180830381858888f1935050505015801561126f573d6000803e3d6000fd5b508060050160019054906101000a900473ffffffffffffffffffffffffffffffffffffffff1673ffffffffffffffffffffffffffffffffffffffff16847f4dbba472101e9f148a3a5ecbe793f0ee16a7efe4bf3f8cbfab5330e1642ef955346040516112db9190612946565b60405180910390a3506112ec612429565b505050565b60056020528160005260406000206020528060005260406000206000915091509054906101000a900460ff1681565b611328612193565b600360003373ffffffffffffffffffffffffffffffffffffffff1673ffffffffffffffffffffffffffffffffffffffff16815260200190815260200160002060040160009054906101000a900460ff16156113b8576040517f08c379a00000000000000000000000000000000000000000000000000000000081526004016113af9061368f565b60405180910390fd5b6040518060a00160405280838152602001828152602001600081526020016000815260200160011515815250600360003373ffffffffffffffffffffffffffffffffffffffff1673ffffffffffffffffffffffffffffffffffffffff16815260200190815260200160002060008201518160000190816114389190613469565b50602082015181600101908161144e9190613469565b50604082015181600201556060820151816003015560808201518160040160006101000a81548160ff0219169083151502179055509050503373ffffffffffffffffffffffffffffffffffffffff167fdd635a4cd84864e37e4479dbfc2ec667acfa473c83c8422a8ac9d9d07599b01c836040516114cc91906136af565b60405180910390a25050565b60036020528060005260406000206000915090508060000180546114fb90612ff9565b80601f016020809104026020016040519081016040528092919081815260200182805461152790612ff9565b80156115745780601f1061154957610100808354040283529160200191611574565b820191906000526020600020905b81548152906001019060200180831161155757829003601f168201915b50505050509080600101805461158990612ff9565b80601f01602080910402602001604051908101604052809291908181526020018280546115b590612ff9565b80156116025780601f106115d757610100808354040283529160200191611602565b820191906000526020600020905b8154815290600101906020018083116115e557829003601f168201915b5050505050908060020154908060030154908060040160009054906101000a900460ff16905085565b6116336124ac565b6002600083815260200190815260200160002060405180610100016040529081600082015481526020016001820160009054906101000a900473ffffffffffffffffffffffffffffffffffffffff1673ffffffffffffffffffffffffffffffffffffffff1673ffffffffffffffffffffffffffffffffffffffff1681526020016002820180546116c290612ff9565b80601f01602080910402602001604051908101604052809291908181526020018280546116ee90612ff9565b801561173b5780601f106117105761010080835404028352916020019161173b565b820191906000526020600020905b81548152906001019060200180831161171e57829003601f168201915b5050505050815260200160038201805461175490612ff9565b80601f016020809104026020016040519081016040528092919081815260200182805461178090612ff9565b80156117cd5780601f106117a2576101008083540402835291602001916117cd565b820191906000526020600020905b8154815290600101906020018083116117b057829003601f168201915b50505050508152602001600482015481526020016005820160009054906101000a900460ff161515151581526020016005820160019054906101000a900473ffffffffffffffffffffffffffffffffffffffff1673ffffffffffffffffffffffffffffffffffffffff1673ffffffffffffffffffffffffffffffffffffffff1681526020016005820160159054906101000a900460ff16600381111561187657611875612803565b5b600381111561188857611887612803565b5b815250509050919050565b61189b6121d4565b6118a3610fe0565b73ffffffffffffffffffffffffffffffffffffffff166108fc479081150290604051600060405180830381858888f193505050501580156118e8573d6000803e3d6000fd5b50565b6118f3612193565b826006548110611938576040517f08c379a000000000000000000000000000000000000000000000000000000000815260040161192f90613076565b60405180910390fd5b600360003373ffffffffffffffffffffffffffffffffffffffff1673ffffffffffffffffffffffffffffffffffffffff16815260200190815260200160002060040160009054906101000a900460ff166119c7576040517f08c379a00000000000000000000000000000000000000000000000000000000081526004016119be90613226565b60405180910390fd5b6002600085815260200190815260200160002060050160009054906101000a900460ff16611a2a576040517f08c379a0000000000000000000000000000000000000000000000000000000008152600401611a219061371d565b60405180910390fd5b6005600085815260200190815260200160002060003373ffffffffffffffffffffffffffffffffffffffff1673ffffffffffffffffffffffffffffffffffffffff16815260200190815260200160002060009054906101000a900460ff1615611ac8576040517f08c379a0000000000000000000000000000000000000000000000000000000008152600401611abf90613789565b60405180910390fd5b3373ffffffffffffffffffffffffffffffffffffffff166002600086815260200190815260200160002060010160009054906101000a900473ffffffffffffffffffffffffffffffffffffffff1673ffffffffffffffffffffffffffffffffffffffff1603611b6c576040517f08c379a0000000000000000000000000000000000000000000000000000000008152600401611b63906137f5565b60405180910390fd5b60006040518060a001604052808681526020013373ffffffffffffffffffffffffffffffffffffffff168152602001858152602001848152602001600015158152509050600460008681526020019081526020016000208190806001815401808255809150506001900390600052602060002090600502016000909190919091506000820151816000015560208201518160010160006101000a81548173ffffffffffffffffffffffffffffffffffffffff021916908373ffffffffffffffffffffffffffffffffffffffff1602179055506040820151816002019081611c539190613469565b506060820151816003015560808201518160040160006101000a81548160ff021916908315150217905550505060016005600087815260200190815260200160002060003373ffffffffffffffffffffffffffffffffffffffff1673ffffffffffffffffffffffffffffffffffffffff16815260200190815260200160002060006101000a81548160ff0219169083151502179055503373ffffffffffffffffffffffffffffffffffffffff16857f394b2f46e841d2b670718e98a15dfb76853abc5a8761449c74e9cba62d90152160405160405180910390a35050505050565b60046020528160005260406000208181548110611d5057600080fd5b9060005260206000209060050201600091509150508060000154908060010160009054906101000a900473ffffffffffffffffffffffffffffffffffffffff1690806002018054611da090612ff9565b80601f0160208091040260200160405190810160405280929190818152602001828054611dcc90612ff9565b8015611e195780601f10611dee57610100808354040283529160200191611e19565b820191906000526020600020905b815481529060010190602001808311611dfc57829003601f168201915b5050505050908060030154908060040160009054906101000a900460ff16905085565b611e446121d4565b600073ffffffffffffffffffffffffffffffffffffffff168173ffffffffffffffffffffffffffffffffffffffff1603611eb65760006040517f1e4fbdf7000000000000000000000000000000000000000000000000000000008152600401611ead9190612ca5565b60405180910390fd5b611ebf816122be565b50565b611eca612193565b600360003373ffffffffffffffffffffffffffffffffffffffff1673ffffffffffffffffffffffffffffffffffffffff16815260200190815260200160002060040160009054906101000a900460ff16611f59576040517f08c379a0000000000000000000000000000000000000000000000000000000008152600401611f5090613226565b60405180910390fd5b60018110158015611f6b575060058111155b611faa576040517f08c379a0000000000000000000000000000000000000000000000000000000008152600401611fa190613861565b60405180910390fd5b3373ffffffffffffffffffffffffffffffffffffffff168273ffffffffffffffffffffffffffffffffffffffff1603612018576040517f08c379a000000000000000000000000000000000000000000000000000000000815260040161200f906138cd565b60405180910390fd5b600360008373ffffffffffffffffffffffffffffffffffffffff1673ffffffffffffffffffffffffffffffffffffffff16815260200190815260200160002060040160009054906101000a900460ff166120a7576040517f08c379a000000000000000000000000000000000000000000000000000000000815260040161209e90613939565b60405180910390fd5b6000600360008473ffffffffffffffffffffffffffffffffffffffff1673ffffffffffffffffffffffffffffffffffffffff1681526020019081526020016000209050600082826003015483600201546121019190613959565b61210b919061399b565b905081600301600081548092919061212290613275565b919050555081600301548161213791906139fe565b82600201819055508373ffffffffffffffffffffffffffffffffffffffff167f472a3eb3a3d4dfe3e8ae686153c14036085032d0649b5dfe1e0254eb6c7766c8846040516121859190612946565b60405180910390a250505050565b61219b610e1a565b156121d2576040517fd93c066500000000000000000000000000000000000000000000000000000000815260040160405180910390fd5b565b6121dc612433565b73ffffffffffffffffffffffffffffffffffffffff166121fa610fe0565b73ffffffffffffffffffffffffffffffffffffffff16146122595761221d612433565b6040517f118cdaa70000000000000000000000000000000000000000000000000000000081526004016122509190612ca5565b60405180910390fd5b565b61226361243b565b6000600160006101000a81548160ff0219169083151502179055507f5db9ee0a495bf2e6ff9c91a7834c1ba4fdd244a5e8aa4e537bd38aeae4b073aa6122a7612433565b6040516122b49190612ca5565b60405180910390a1565b600060018054906101000a900473ffffffffffffffffffffffffffffffffffffffff169050816001806101000a81548173ffffffffffffffffffffffffffffffffffffffff021916908373ffffffffffffffffffffffffffffffffffffffff1602179055508173ffffffffffffffffffffffffffffffffffffffff168173ffffffffffffffffffffffffffffffffffffffff167f8be0079c531659141344cd1fd0a4f28419497f9722a3daafe3b4186f6b6457e060405160405180910390a35050565b612389612193565b60018060006101000a81548160ff0219169083151502179055507f62e78cea01bee320cd4e420270b5ea74000d11b0c9f74754ebdbfc544b05a2586123cc612433565b6040516123d99190612ca5565b60405180910390a1565b60026000540361241f576040517f3ee5aeb500000000000000000000000000000000000000000000000000000000815260040160405180910390fd5b6002600081905550565b6001600081905550565b600033905090565b612443610e1a565b612479576040517f8dfc202b00000000000000000000000000000000000000000000000000000000815260040160405180910390fd5b565b6040518060a00160405280606081526020016060815260200160008152602001600081526020016000151581525090565b60405180610100016040528060008152602001600073ffffffffffffffffffffffffffffffffffffffff168152602001606081526020016060815260200160008152602001600015158152602001600073ffffffffffffffffffffffffffffffffffffffff1681526020016000600381111561252b5761252a612803565b5b81525090565b6000604051905090565b600080fd5b600080fd5b600073ffffffffffffffffffffffffffffffffffffffff82169050919050565b600061257082612545565b9050919050565b61258081612565565b811461258b57600080fd5b50565b60008135905061259d81612577565b92915050565b6000602082840312156125b9576125b861253b565b5b60006125c78482850161258e565b91505092915050565b600081519050919050565b600082825260208201905092915050565b60005b8381101561260a5780820151818401526020810190506125ef565b60008484015250505050565b6000601f19601f8301169050919050565b6000612632826125d0565b61263c81856125db565b935061264c8185602086016125ec565b61265581612616565b840191505092915050565b6000819050919050565b61267381612660565b82525050565b60008115159050919050565b61268e81612679565b82525050565b600060a08301600083015184820360008601526126b18282612627565b915050602083015184820360208601526126cb8282612627565b91505060408301516126e0604086018261266a565b5060608301516126f3606086018261266a565b5060808301516127066080860182612685565b508091505092915050565b6000602082019050818103600083015261272b8184612694565b905092915050565b61273c81612660565b811461274757600080fd5b50565b60008135905061275981612733565b92915050565b6000602082840312156127755761277461253b565b5b60006127838482850161274a565b91505092915050565b61279581612660565b82525050565b6127a481612565565b82525050565b600082825260208201905092915050565b60006127c6826125d0565b6127d081856127aa565b93506127e08185602086016125ec565b6127e981612616565b840191505092915050565b6127fd81612679565b82525050565b7f4e487b7100000000000000000000000000000000000000000000000000000000600052602160045260246000fd5b6004811061284357612842612803565b5b50565b600081905061285482612832565b919050565b600061286482612846565b9050919050565b61287481612859565b82525050565b600061010082019050612890600083018b61278c565b61289d602083018a61279b565b81810360408301526128af81896127bb565b905081810360608301526128c381886127bb565b90506128d2608083018761278c565b6128df60a08301866127f4565b6128ec60c083018561279b565b6128f960e083018461286b565b9998505050505050505050565b6000806040838503121561291d5761291c61253b565b5b600061292b8582860161274a565b925050602061293c8582860161258e565b9150509250929050565b600060208201905061295b600083018461278c565b92915050565b600080fd5b600080fd5b7f4e487b7100000000000000000000000000000000000000000000000000000000600052604160045260246000fd5b6129a382612616565b810181811067ffffffffffffffff821117156129c2576129c161296b565b5b80604052505050565b60006129d5612531565b90506129e1828261299a565b919050565b600067ffffffffffffffff821115612a0157612a0061296b565b5b612a0a82612616565b9050602081019050919050565b82818337600083830152505050565b6000612a39612a34846129e6565b6129cb565b905082815260208101848484011115612a5557612a54612966565b5b612a60848285612a17565b509392505050565b600082601f830112612a7d57612a7c612961565b5b8135612a8d848260208601612a26565b91505092915050565b600080600060608486031215612aaf57612aae61253b565b5b600084013567ffffffffffffffff811115612acd57612acc612540565b5b612ad986828701612a68565b935050602084013567ffffffffffffffff811115612afa57612af9612540565b5b612b0686828701612a68565b9250506040612b178682870161274a565b9150509250925092565b6000602082019050612b3660008301846127f4565b92915050565b600081519050919050565b600082825260208201905092915050565b6000819050602082019050919050565b612b7181612565565b82525050565b600060a083016000830151612b8f600086018261266a565b506020830151612ba26020860182612b68565b5060408301518482036040860152612bba8282612627565b9150506060830151612bcf606086018261266a565b506080830151612be26080860182612685565b508091505092915050565b6000612bf98383612b77565b905092915050565b6000602082019050919050565b6000612c1982612b3c565b612c238185612b47565b935083602082028501612c3585612b58565b8060005b85811015612c715784840389528151612c528582612bed565b9450612c5d83612c01565b925060208a01995050600181019050612c39565b50829750879550505050505092915050565b60006020820190508181036000830152612c9d8184612c0e565b905092915050565b6000602082019050612cba600083018461279b565b92915050565b60008060408385031215612cd757612cd661253b565b5b600083013567ffffffffffffffff811115612cf557612cf4612540565b5b612d0185828601612a68565b925050602083013567ffffffffffffffff811115612d2257612d21612540565b5b612d2e85828601612a68565b9150509250929050565b600060a0820190508181036000830152612d5281886127bb565b90508181036020830152612d6681876127bb565b9050612d75604083018661278c565b612d82606083018561278c565b612d8f60808301846127f4565b9695505050505050565b612da281612859565b82525050565b600061010083016000830151612dc1600086018261266a565b506020830151612dd46020860182612b68565b5060408301518482036040860152612dec8282612627565b91505060608301518482036060860152612e068282612627565b9150506080830151612e1b608086018261266a565b5060a0830151612e2e60a0860182612685565b5060c0830151612e4160c0860182612b68565b5060e0830151612e5460e0860182612d99565b508091505092915050565b60006020820190508181036000830152612e798184612da8565b905092915050565b600080600060608486031215612e9a57612e9961253b565b5b6000612ea88682870161274a565b935050602084013567ffffffffffffffff811115612ec957612ec8612540565b5b612ed586828701612a68565b9250506040612ee68682870161274a565b9150509250925092565b60008060408385031215612f0757612f0661253b565b5b6000612f158582860161274a565b9250506020612f268582860161274a565b9150509250929050565b600060a082019050612f45600083018861278c565b612f52602083018761279b565b8181036040830152612f6481866127bb565b9050612f73606083018561278c565b612f8060808301846127f4565b9695505050505050565b60008060408385031215612fa157612fa061253b565b5b6000612faf8582860161258e565b9250506020612fc08582860161274a565b9150509250929050565b7f4e487b7100000000000000000000000000000000000000000000000000000000600052602260045260246000fd5b6000600282049050600182168061301157607f821691505b60208210810361302457613023612fca565b5b50919050565b7f4a6f6220646f6573206e6f742065786973740000000000000000000000000000600082015250565b60006130606012836127aa565b915061306b8261302a565b602082019050919050565b6000602082019050818103600083015261308f81613053565b9050919050565b7f4e6f742074686520656d706c6f79657200000000000000000000000000000000600082015250565b60006130cc6010836127aa565b91506130d782613096565b602082019050919050565b600060208201905081810360008301526130fb816130bf565b9050919050565b7f4a6f62206e6f74206f70656e0000000000000000000000000000000000000000600082015250565b6000613138600c836127aa565b915061314382613102565b602082019050919050565b600060208201905081810360008301526131678161312b565b9050919050565b7f467265656c616e63657220686173206e6f74206170706c696564000000000000600082015250565b60006131a4601a836127aa565b91506131af8261316e565b602082019050919050565b600060208201905081810360008301526131d381613197565b9050919050565b7f50726f66696c65206e6f74207265676973746572656400000000000000000000600082015250565b60006132106016836127aa565b915061321b826131da565b602082019050919050565b6000602082019050818103600083015261323f81613203565b9050919050565b7f4e487b7100000000000000000000000000000000000000000000000000000000600052601160045260246000fd5b600061328082612660565b91507fffffffffffffffffffffffffffffffffffffffffffffffffffffffffffffffff82036132b2576132b1613246565b5b600182019050919050565b60008190508160005260206000209050919050565b60006020601f8301049050919050565b600082821b905092915050565b60006008830261331f7fffffffffffffffffffffffffffffffffffffffffffffffffffffffffffffffff826132e2565b61332986836132e2565b95508019841693508086168417925050509392505050565b6000819050919050565b600061336661336161335c84612660565b613341565b612660565b9050919050565b6000819050919050565b6133808361334b565b61339461338c8261336d565b8484546132ef565b825550505050565b600090565b6133a961339c565b6133b4818484613377565b505050565b5b818110156133d8576133cd6000826133a1565b6001810190506133ba565b5050565b601f82111561341d576133ee816132bd565b6133f7846132d2565b81016020851015613406578190505b61341a613412856132d2565b8301826133b9565b50505b505050565b600082821c905092915050565b600061344060001984600802613422565b1980831691505092915050565b6000613459838361342f565b9150826002028217905092915050565b613472826125d0565b67ffffffffffffffff81111561348b5761348a61296b565b5b6134958254612ff9565b6134a08282856133dc565b600060209050601f8311600181146134d357600084156134c1578287015190505b6134cb858261344d565b865550613533565b601f1984166134e1866132bd565b60005b82811015613509578489015182556001820191506020850194506020810190506134e4565b868310156135265784890151613522601f89168261342f565b8355505b6001600288020188555050505b505050505050565b6000604082019050818103600083015261355581856127bb565b9050613564602083018461278c565b9392505050565b7f4a6f62206e6f7420696e2070726f677265737300000000000000000000000000600082015250565b60006135a16013836127aa565b91506135ac8261356b565b602082019050919050565b600060208201905081810360008301526135d081613594565b9050919050565b7f496e73756666696369656e74207061796d656e74000000000000000000000000600082015250565b600061360d6014836127aa565b9150613618826135d7565b602082019050919050565b6000602082019050818103600083015261363c81613600565b9050919050565b7f50726f66696c6520616c72656164792065786973747300000000000000000000600082015250565b60006136796016836127aa565b915061368482613643565b602082019050919050565b600060208201905081810360008301526136a88161366c565b9050919050565b600060208201905081810360008301526136c981846127bb565b905092915050565b7f4a6f62206973206e6f7420616374697665000000000000000000000000000000600082015250565b60006137076011836127aa565b9150613712826136d1565b602082019050919050565b60006020820190508181036000830152613736816136fa565b9050919050565b7f416c7265616479206170706c6965640000000000000000000000000000000000600082015250565b6000613773600f836127aa565b915061377e8261373d565b602082019050919050565b600060208201905081810360008301526137a281613766565b9050919050565b7f43616e6e6f74206170706c7920746f206f776e206a6f62000000000000000000600082015250565b60006137df6017836127aa565b91506137ea826137a9565b602082019050919050565b6000602082019050818103600083015261380e816137d2565b9050919050565b7f496e76616c696420726174696e67000000000000000000000000000000000000600082015250565b600061384b600e836127aa565b915061385682613815565b602082019050919050565b6000602082019050818103600083015261387a8161383e565b9050919050565b7f43616e6e6f74207261746520796f757273656c66000000000000000000000000600082015250565b60006138b76014836127aa565b91506138c282613881565b602082019050919050565b600060208201905081810360008301526138e6816138aa565b9050919050565b7f50726f66696c6520646f6573206e6f7420657869737400000000000000000000600082015250565b60006139236016836127aa565b915061392e826138ed565b602082019050919050565b6000602082019050818103600083015261395281613916565b9050919050565b600061396482612660565b915061396f83612660565b925082820261397d81612660565b9150828204841483151761399457613993613246565b5b5092915050565b60006139a682612660565b91506139b183612660565b92508282019050808211156139c9576139c8613246565b5b92915050565b7f4e487b7100000000000000000000000000000000000000000000000000000000600052601260045260246000fd5b6000613a0982612660565b9150613a1483612660565b925082613a2457613a236139cf565b5b82820490509291505056fea2646970667358221220ddf6b6725b3859e136e59161e6dfdfcf4d67147679764c7e2d24859526cb586164736f6c63430008140033",
  "linkReferences": {},
  "deployedLinkReferences": {}
}